{
  "contractName": "add",
  "abi": [
    {
      "anonymous": false,
      "inputs": [
        {
          "indexed": false,
          "internalType": "address",
          "name": "_addr",
          "type": "address"
        },
        {
          "indexed": false,
          "internalType": "uint256",
          "name": "_num",
          "type": "uint256"
        }
      ],
      "name": "Info",
      "type": "event"
    },
    {
      "inputs": [],
      "name": "num",
      "outputs": [
        {
          "internalType": "uint256",
          "name": "",
          "type": "uint256"
        }
      ],
      "stateMutability": "view",
      "type": "function"
    },
    {
      "inputs": [],
      "name": "plusOne",
      "outputs": [],
      "stateMutability": "nonpayable",
      "type": "function"
    }
  ],
  "bytecode": "0x60806040526000805534801561001457600080fd5b50610102806100246000396000f3fe6080604052348015600f57600080fd5b506004361060325760003560e01c80634e70b1dc14603757806368e5c066146051575b600080fd5b603f60005481565b60405190815260200160405180910390f35b60576059565b005b600054606590600160a6565b60008190556040805133815260208101929092527f2e2a4a34dacfe23211d7cd5f2269b17fe50bc4440e8ac080de1026da21e8007d910160405180910390a1565b8082018082111560c657634e487b7160e01b600052601160045260246000fd5b9291505056fea2646970667358221220c75fb7b5eb58a7421673969ec0bf4c9025fd53fbc04473b9dbdaf9e87e16614b64736f6c63430008130033",
  "immutableReferences": {},
  "source": "// SPDX-License-Identifier: UNLICENSED\r\n\r\npragma solidity 0.8.19;\r\n\r\n// call과 delegateCall의 차이점을 알 수 있는 코드\r\n\r\ncontract add{\r\n    uint256 public num = 0;\r\n    event Info(address _addr,uint256 _num);\r\n    \r\n    function plusOne() public {\r\n        num = num + 1;\r\n        emit Info(msg.sender,num);\r\n    }\r\n}\r\n\r\n\r\ncontract caller{\r\n    uint256 public num = 0;\r\n    function callNow(address _contractAddr) public payable{\r\n        (bool success,) = _contractAddr.call(abi.encodeWithSignature(\"plusOne()\"));\r\n        require(success,\"failed to transfer ether\");\r\n    }\r\n    function delecateCallNow(address _contractAddr) public payable{\r\n        (bool success,) = _contractAddr.delegatecall(abi.encodeWithSignature(\"plusOne()\"));\r\n        require(success,\"failed to transfer ether\");\r\n    }\r\n}",
  "sourcePath": "C:\\Users\\user\\Desktop\\nft\\HelloWorld\\contracts\\delecateCall.sol",
  "compiler": {
    "name": "solc",
    "version": "0.8.19+commit.7dd6d404.Emscripten.clang"
  },
  "schemaVersion": "3.4.13",
  "updatedAt": "2023-04-14T04:49:25.828Z",
  "devdoc": {
    "kind": "dev",
    "methods": {},
    "version": 1
  },
  "userdoc": {
    "kind": "user",
    "methods": {},
    "version": 1
  }
}