{
  "contractName": "caller",
  "abi": [
    {
      "inputs": [],
      "name": "num",
      "outputs": [
        {
          "internalType": "uint256",
          "name": "",
          "type": "uint256"
        }
      ],
      "stateMutability": "view",
      "type": "function"
    },
    {
      "inputs": [
        {
          "internalType": "address",
          "name": "_contractAddr",
          "type": "address"
        }
      ],
      "name": "callNow",
      "outputs": [],
      "stateMutability": "payable",
      "type": "function"
    },
    {
      "inputs": [
        {
          "internalType": "address",
          "name": "_contractAddr",
          "type": "address"
        }
      ],
      "name": "delecateCallNow",
      "outputs": [],
      "stateMutability": "payable",
      "type": "function"
    }
  ],
  "bytecode": "0x60806040526000805534801561001457600080fd5b50610278806100246000396000f3fe6080604052600436106100345760003560e01c80634e70b1dc146100395780634f88baae1461006157806375a4624d14610076575b600080fd5b34801561004557600080fd5b5061004f60005481565b60405190815260200160405180910390f35b61007461006f3660046101e3565b610089565b005b6100746100843660046101e3565b610164565b60408051600481526024810182526020810180516001600160e01b0316633472e03360e11b17905290516000916001600160a01b038416916100cb9190610213565b600060405180830381855af49150503d8060008114610106576040519150601f19603f3d011682016040523d82523d6000602084013e61010b565b606091505b50509050806101605760405162461bcd60e51b815260206004820152601860248201527f6661696c656420746f207472616e736665722065746865720000000000000000604482015260640160405180910390fd5b5050565b60408051600481526024810182526020810180516001600160e01b0316633472e03360e11b17905290516000916001600160a01b038416916101a69190610213565b6000604051808303816000865af19150503d8060008114610106576040519150601f19603f3d011682016040523d82523d6000602084013e61010b565b6000602082840312156101f557600080fd5b81356001600160a01b038116811461020c57600080fd5b9392505050565b6000825160005b81811015610234576020818601810151858301520161021a565b50600092019182525091905056fea26469706673582212207c1989d5567e96fca55ba4b5c7bde1b8770345624a1abee2237ff53088886c8464736f6c63430008130033",
  "immutableReferences": {},
  "source": "// SPDX-License-Identifier: UNLICENSED\r\n\r\npragma solidity 0.8.19;\r\n\r\n// call과 delegateCall의 차이점을 알 수 있는 코드\r\n\r\ncontract add{\r\n    uint256 public num = 0;\r\n    event Info(address _addr,uint256 _num);\r\n    \r\n    function plusOne() public {\r\n        num = num + 1;\r\n        emit Info(msg.sender,num);\r\n    }\r\n}\r\n\r\n\r\ncontract caller{\r\n    uint256 public num = 0;\r\n    function callNow(address _contractAddr) public payable{\r\n        (bool success,) = _contractAddr.call(abi.encodeWithSignature(\"plusOne()\"));\r\n        require(success,\"failed to transfer ether\");\r\n    }\r\n    function delecateCallNow(address _contractAddr) public payable{\r\n        (bool success,) = _contractAddr.delegatecall(abi.encodeWithSignature(\"plusOne()\"));\r\n        require(success,\"failed to transfer ether\");\r\n    }\r\n}",
  "sourcePath": "C:\\Users\\user\\Desktop\\nft\\HelloWorld\\contracts\\delecateCall.sol",
  "compiler": {
    "name": "solc",
    "version": "0.8.19+commit.7dd6d404.Emscripten.clang"
  },
  "schemaVersion": "3.4.13",
  "updatedAt": "2023-04-14T04:49:25.832Z",
  "devdoc": {
    "kind": "dev",
    "methods": {},
    "version": 1
  },
  "userdoc": {
    "kind": "user",
    "methods": {},
    "version": 1
  }
}