{
  "contractName": "Father",
  "abi": [
    {
      "inputs": [
        {
          "internalType": "string",
          "name": "firstname",
          "type": "string"
        }
      ],
      "stateMutability": "nonpayable",
      "type": "constructor"
    },
    {
      "inputs": [],
      "name": "getMoney",
      "outputs": [
        {
          "internalType": "uint256",
          "name": "",
          "type": "uint256"
        }
      ],
      "stateMutability": "view",
      "type": "function"
    }
  ],
  "bytecode": "0x60c060405260036080908152624b696d60e81b60a0526000906100229082610131565b5060408051808201909152600781526647696c73756e6760c81b602082015260019061004e9082610131565b50606460025534801561006057600080fd5b5060405161033f38038061033f83398101604081905261007f916101f0565b600161008b8282610131565b50506102b9565b634e487b7160e01b600052604160045260246000fd5b600181811c908216806100bc57607f821691505b6020821081036100dc57634e487b7160e01b600052602260045260246000fd5b50919050565b601f82111561012c57600081815260208120601f850160051c810160208610156101095750805b601f850160051c820191505b8181101561012857828155600101610115565b5050505b505050565b81516001600160401b0381111561014a5761014a610092565b61015e8161015884546100a8565b846100e2565b602080601f831160018114610193576000841561017b5750858301515b600019600386901b1c1916600185901b178555610128565b600085815260208120601f198616915b828110156101c2578886015182559484019460019091019084016101a3565b50858210156101e05787850151600019600388901b60f8161c191681555b5050505050600190811b01905550565b6000602080838503121561020357600080fd5b82516001600160401b038082111561021a57600080fd5b818501915085601f83011261022e57600080fd5b81518181111561024057610240610092565b604051601f8201601f19908116603f0116810190838211818310171561026857610268610092565b81604052828152888684870101111561028057600080fd5b600093505b828410156102a25784840186015181850187015292850192610285565b600086848301015280965050505050505092915050565b6078806102c76000396000f3fe6080604052348015600f57600080fd5b506004361060285760003560e01c806398e1b41014602d575b600080fd5b60025460405190815260200160405180910390f3fea26469706673582212203846a84f1a6a1570da634d2c37d95c3af3c5f004bea77db68194768ed27a688c64736f6c63430008130033",
  "immutableReferences": {},
  "source": "// SPDX-License-Identifier: UNLICENSED\r\n\r\npragma solidity 0.8.19;\r\n\r\n\r\ncontract Father{\r\n\tstring LastName = \"Kim\";\r\n\tstring FirstName = \"Gilsung\";\r\n\tuint256 money = 100;\r\n    \r\n\tconstructor (string memory firstname) {\r\n\t\tFirstName = firstname;\r\n\t}\r\n\tfunction getMoney() view public virtual returns(uint256)  {\r\n\t\treturn money;\r\n\t}\r\n\r\n}\r\n//   is . \r\n//    FirstName  contract   .\r\ncontract Son is Father(\"Junbeum\") { \r\n    uint256 earns = 200;\r\n\r\n\tfunction getMoney() view public override returns(uint256)  {\r\n\t\treturn money+earns;\r\n\t}\r\n}\r\n\r\n//   constructor     .\r\ncontract Dauther is Father {\r\n\tconstructor () Father(\"selim\") {\r\n\t}\r\n}\r\n\r\ncontract HelloWorld {\r\n\r\n    uint256[] balance = [1, 2, 3];\r\n\r\n    function push(uint i) public {\r\n        // Append to array\r\n        // This will increase the array length by 1.\r\n        balance.push(i);\r\n    }\r\n\r\n\tfunction test() public returns(uint256[] memory) {\r\n\t\tpush(4);\r\n\t\tpush(5);\r\n\t\treturn balance;\r\n\t}\r\n\t\r\n}\r\n\r\n\r\ncontract add{\r\n    uint256 public num = 0;\r\n    event Info(address _addr,uint256 _num);\r\n    \r\n    function plusOne() public {\r\n        num = num + 1;\r\n        emit Info(msg.sender,num);\r\n    }\r\n    \r\n\r\n    \r\n}\r\n\r\ncontract caller{\r\n    uint256 public num = 0;\r\n    function callNow(address _contractAddr) public payable{\r\n        (bool success,) = _contractAddr.call(abi.encodeWithSignature(\"plusOne()\"));\r\n        require(success,\"failed to transfer ether\");\r\n    }\r\n    function delcateCallNow(address _contractAddr) public payable{\r\n        (bool success,) = _contractAddr.delegatecall(abi.encodeWithSignature(\"plusOne()\"));\r\n        require(success,\"failed to transfer ether\");\r\n    }\r\n}",
  "sourcePath": "C:\\Users\\user\\Desktop\\nft\\HelloWorld\\contracts\\inheritance.sol",
  "compiler": {
    "name": "solc",
    "version": "0.8.19+commit.7dd6d404.Emscripten.clang"
  },
  "schemaVersion": "3.4.13",
  "updatedAt": "2023-04-12T11:22:17.109Z",
  "devdoc": {
    "kind": "dev",
    "methods": {},
    "version": 1
  },
  "userdoc": {
    "kind": "user",
    "methods": {},
    "version": 1
  }
}