{
  "contractName": "HelloWorld",
  "abi": [
    {
      "inputs": [
        {
          "internalType": "uint256",
          "name": "i",
          "type": "uint256"
        }
      ],
      "name": "push",
      "outputs": [],
      "stateMutability": "nonpayable",
      "type": "function"
    },
    {
      "inputs": [],
      "name": "test",
      "outputs": [
        {
          "internalType": "uint256[]",
          "name": "",
          "type": "uint256[]"
        }
      ],
      "stateMutability": "nonpayable",
      "type": "function"
    }
  ],
  "bytecode": "0x60e060405260016080908152600260a052600360c081905261002391600091610036565b5034801561003057600080fd5b5061009b565b828054828255906000526020600020908101928215610076579160200282015b82811115610076578251829060ff16905591602001919060010190610056565b50610082929150610086565b5090565b5b808211156100825760008155600101610087565b6101f4806100aa6000396000f3fe608060405234801561001057600080fd5b50600436106100365760003560e01c8063959ac4841461003b578063f8a8fd6d1461007d575b600080fd5b61007b610049366004610161565b600080546001810182559080527f290decd9548b62a8d60345a988386fc84ba6bc95484008f6362f93160ef3e5630155565b005b61008561009b565b604051610092919061017a565b60405180910390f35b60606100d46004600080546001810182559080527f290decd9548b62a8d60345a988386fc84ba6bc95484008f6362f93160ef3e5630155565b61010b6005600080546001810182559080527f290decd9548b62a8d60345a988386fc84ba6bc95484008f6362f93160ef3e5630155565b600080548060200260200160405190810160405280929190818152602001828054801561015757602002820191906000526020600020905b815481526020019060010190808311610143575b5050505050905090565b60006020828403121561017357600080fd5b5035919050565b6020808252825182820181905260009190848201906040850190845b818110156101b257835183529284019291840191600101610196565b5090969550505050505056fea2646970667358221220fccb5b4af83179565783c665ae5d7abc1ca76bdc846f44e17f57fcc15b2380bc64736f6c63430008130033",
  "immutableReferences": {},
  "source": "// SPDX-License-Identifier: UNLICENSED\r\n\r\npragma solidity 0.8.19;\r\n\r\n\r\ncontract Father{\r\n\tstring LastName = \"Kim\";\r\n\tstring FirstName = \"Gilsung\";\r\n\tuint256 money = 100;\r\n    \r\n\tconstructor (string memory firstname) {\r\n\t\tFirstName = firstname;\r\n\t}\r\n\tfunction getMoney() view public virtual returns(uint256)  {\r\n\t\treturn money;\r\n\t}\r\n\r\n}\r\n//상속은 아래와 같이 is를 사용함. \r\n// 아버지의 생성자를 통해 FirstName이 변경된 contract을 만들 수 있음.\r\ncontract Son is Father(\"Junbeum\") { \r\n    uint256 earns = 200;\r\n\r\n\tfunction getMoney() view public override returns(uint256)  {\r\n\t\treturn money+earns;\r\n\t}\r\n}\r\n\r\n// 또는 자식의 constructor에서 부모 생성자를 사용할 수도 있음.\r\ncontract Dauther is Father {\r\n\tconstructor () Father(\"selim\") {\r\n\t}\r\n}\r\n\r\ncontract HelloWorld {\r\n\r\n    uint256[] balance = [1, 2, 3];\r\n\r\n    function push(uint i) public {\r\n        // Append to array\r\n        // This will increase the array length by 1.\r\n        balance.push(i);\r\n    }\r\n\r\n\tfunction test() public returns(uint256[] memory) {\r\n\t\tpush(4);\r\n\t\tpush(5);\r\n\t\treturn balance;\r\n\t}\r\n\t\r\n}\r\n\r\n\r\ncontract add{\r\n    uint256 public num = 0;\r\n    event Info(address _addr,uint256 _num);\r\n    \r\n    function plusOne() public {\r\n        num = num + 1;\r\n        emit Info(msg.sender,num);\r\n    }\r\n    \r\n\r\n    \r\n}\r\n\r\ncontract caller{\r\n    uint256 public num = 0;\r\n    function callNow(address _contractAddr) public payable{\r\n        (bool success,) = _contractAddr.call(abi.encodeWithSignature(\"plusOne()\"));\r\n        require(success,\"failed to transfer ether\");\r\n    }\r\n    function delcateCallNow(address _contractAddr) public payable{\r\n        (bool success,) = _contractAddr.delegatecall(abi.encodeWithSignature(\"plusOne()\"));\r\n        require(success,\"failed to transfer ether\");\r\n    }\r\n}",
  "sourcePath": "C:\\Users\\user\\Desktop\\nft\\HelloWorld\\contracts\\inheritance.sol",
  "compiler": {
    "name": "solc",
    "version": "0.8.19+commit.7dd6d404.Emscripten.clang"
  },
  "schemaVersion": "3.4.13",
  "updatedAt": "2023-04-12T11:22:17.114Z",
  "devdoc": {
    "kind": "dev",
    "methods": {},
    "version": 1
  },
  "userdoc": {
    "kind": "user",
    "methods": {},
    "version": 1
  }
}