{
  "contractName": "Son",
  "abi": [
    {
      "inputs": [],
      "name": "getMoney",
      "outputs": [
        {
          "internalType": "uint256",
          "name": "",
          "type": "uint256"
        }
      ],
      "stateMutability": "view",
      "type": "function"
    }
  ],
  "bytecode": "0x60c060405260036080908152624b696d60e81b60a0526000906100229082610136565b5060408051808201909152600781526647696c73756e6760c81b602082015260019061004e9082610136565b50606460025560c860035534801561006557600080fd5b506040805180820190915260078152664a756e6265756d60c81b602082015260016100908282610136565b50506101f5565b634e487b7160e01b600052604160045260246000fd5b600181811c908216806100c157607f821691505b6020821081036100e157634e487b7160e01b600052602260045260246000fd5b50919050565b601f82111561013157600081815260208120601f850160051c8101602086101561010e5750805b601f850160051c820191505b8181101561012d5782815560010161011a565b5050505b505050565b81516001600160401b0381111561014f5761014f610097565b6101638161015d84546100ad565b846100e7565b602080601f83116001811461019857600084156101805750858301515b600019600386901b1c1916600185901b17855561012d565b600085815260208120601f198616915b828110156101c7578886015182559484019460019091019084016101a8565b50858210156101e55787850151600019600388901b60f8161c191681555b5050505050600190811b01905550565b60b6806102036000396000f3fe6080604052348015600f57600080fd5b506004361060285760003560e01c806398e1b41014602d575b600080fd5b60336045565b60405190815260200160405180910390f35b600060035460025460559190605a565b905090565b80820180821115607a57634e487b7160e01b600052601160045260246000fd5b9291505056fea2646970667358221220e87d3d3f1396c9765c125354af5f2262ea315552f791339407ffb4e79dcb414264736f6c63430008130033",
  "immutableReferences": {},
  "source": "// SPDX-License-Identifier: UNLICENSED\r\n\r\npragma solidity 0.8.19;\r\n\r\n\r\ncontract Father{\r\n\tstring LastName = \"Kim\";\r\n\tstring FirstName = \"Gilsung\";\r\n\tuint256 money = 100;\r\n    \r\n\tconstructor (string memory firstname) {\r\n\t\tFirstName = firstname;\r\n\t}\r\n\tfunction getMoney() view public virtual returns(uint256)  {\r\n\t\treturn money;\r\n\t}\r\n\r\n}\r\n//   is . \r\n//    FirstName  contract   .\r\ncontract Son is Father(\"Junbeum\") { \r\n    uint256 earns = 200;\r\n\r\n\tfunction getMoney() view public override returns(uint256)  {\r\n\t\treturn money+earns;\r\n\t}\r\n}\r\n\r\n//   constructor     .\r\ncontract Dauther is Father {\r\n\tconstructor () Father(\"selim\") {\r\n\t}\r\n}\r\n\r\ncontract HelloWorld {\r\n\r\n    uint256[] balance = [1, 2, 3];\r\n\r\n    function push(uint i) public {\r\n        // Append to array\r\n        // This will increase the array length by 1.\r\n        balance.push(i);\r\n    }\r\n\r\n\tfunction test() public returns(uint256[] memory) {\r\n\t\tpush(4);\r\n\t\tpush(5);\r\n\t\treturn balance;\r\n\t}\r\n\t\r\n}\r\n\r\n\r\ncontract add{\r\n    uint256 public num = 0;\r\n    event Info(address _addr,uint256 _num);\r\n    \r\n    function plusOne() public {\r\n        num = num + 1;\r\n        emit Info(msg.sender,num);\r\n    }\r\n    \r\n\r\n    \r\n}\r\n\r\ncontract caller{\r\n    uint256 public num = 0;\r\n    function callNow(address _contractAddr) public payable{\r\n        (bool success,) = _contractAddr.call(abi.encodeWithSignature(\"plusOne()\"));\r\n        require(success,\"failed to transfer ether\");\r\n    }\r\n    function delcateCallNow(address _contractAddr) public payable{\r\n        (bool success,) = _contractAddr.delegatecall(abi.encodeWithSignature(\"plusOne()\"));\r\n        require(success,\"failed to transfer ether\");\r\n    }\r\n}",
  "sourcePath": "C:\\Users\\user\\Desktop\\nft\\HelloWorld\\contracts\\inheritance.sol",
  "compiler": {
    "name": "solc",
    "version": "0.8.19+commit.7dd6d404.Emscripten.clang"
  },
  "schemaVersion": "3.4.13",
  "updatedAt": "2023-04-12T11:22:17.118Z",
  "devdoc": {
    "kind": "dev",
    "methods": {},
    "version": 1
  },
  "userdoc": {
    "kind": "user",
    "methods": {},
    "version": 1
  }
}