{
  "contractName": "You",
  "abi": [
    {
      "inputs": [
        {
          "internalType": "address payable",
          "name": "_to",
          "type": "address"
        }
      ],
      "name": "DepositWithSend",
      "outputs": [],
      "stateMutability": "payable",
      "type": "function",
      "payable": true
    },
    {
      "inputs": [
        {
          "internalType": "address payable",
          "name": "_to",
          "type": "address"
        }
      ],
      "name": "DepositWithTransfer",
      "outputs": [],
      "stateMutability": "payable",
      "type": "function",
      "payable": true
    },
    {
      "inputs": [
        {
          "internalType": "address payable",
          "name": "_to",
          "type": "address"
        }
      ],
      "name": "DepositWithCall",
      "outputs": [],
      "stateMutability": "payable",
      "type": "function",
      "payable": true
    },
    {
      "inputs": [
        {
          "internalType": "address",
          "name": "_to",
          "type": "address"
        }
      ],
      "name": "JustGiveMessage",
      "outputs": [],
      "stateMutability": "nonpayable",
      "type": "function"
    },
    {
      "inputs": [
        {
          "internalType": "address payable",
          "name": "_to",
          "type": "address"
        }
      ],
      "name": "JustGiveMessageWithFunds",
      "outputs": [],
      "stateMutability": "payable",
      "type": "function",
      "payable": true
    }
  ],
  "bytecode": "0x608060405234801561001057600080fd5b506102de806100206000396000f3fe60806040526004361061004a5760003560e01c80637ea4d6ae1461004f578063ac2a35c814610071578063bc54f7ed14610084578063e1972dbb14610097578063f97447dd146100aa575b600080fd5b34801561005b57600080fd5b5061006f61006a366004610284565b6100bd565b005b61006f61007f366004610284565b610164565b61006f610092366004610284565b6101c3565b61006f6100a5366004610284565b6101d8565b61006f6100b8366004610284565b61020d565b6000816001600160a01b03166040516100de9061484960f01b815260020190565b6000604051808303816000865af19150503d806000811461011b576040519150601f19603f3d011682016040523d82523d6000602084013e610120565b606091505b50509050806101605760405162461bcd60e51b815260206004820152600760248201526611985a5b1b195960ca1b60448201526064015b60405180910390fd5b5050565b6000816001600160a01b0316346040516101869061484960f01b815260020190565b60006040518083038185875af1925050503d806000811461011b576040519150601f19603f3d011682016040523d82523d6000602084013e610120565b6000816001600160a01b031634604051610186565b6040516001600160a01b038216903480156108fc02916000818181858888f19350505050158015610160573d6000803e3d6000fd5b6040516000906001600160a01b038316903480156108fc029184818181858888f193505050509050806101605760405162461bcd60e51b815260206004820152600760248201526611985a5b1b195960ca1b6044820152606401610157565b6001600160a01b038116811461028157600080fd5b50565b60006020828403121561029657600080fd5b81356102a18161026c565b939250505056fea2646970667358221220969c0787a51d01f8fd9904e96277df0a768d939d6998f829af9e794ee00514ca64736f6c63430008130033",
  "immutableReferences": {},
  "source": "// SPDX-License-Identifier: GPL-3.0\r\n\r\npragma solidity >=0.5.0 < 0.9.0;\r\n\r\n\r\n// send, transfer, call의 기능과\r\n// fallback ,receive의 차이점을 알 수 있는 코드\r\n\r\ncontract Bank{\r\n    event JustFallback(address _from,string message);\r\n    event RecevieFallback(address _from,uint256 _value ,string message);\r\n    event JustFallbackWIthFunds(address _from,uint256 _value ,string message);\r\n\r\n    // fallback() external {\r\n    //   emit JustFallback(msg.sender,\"JustFallback is called\");\r\n    // }\r\n    receive() external payable {\r\n      emit RecevieFallback(msg.sender, msg.value,\"RecevieFallback is called\");\r\n    }\r\n    \r\n    \r\n    fallback() external payable {\r\n     emit JustFallbackWIthFunds(msg.sender, msg.value,\"JustFallbackWIthFunds is called\");\r\n    }\r\n  \r\n}\r\n\r\ncontract You{\r\n\r\n    //receve() \r\n    function DepositWithSend(address payable _to) public payable{\r\n         bool success = _to.send(msg.value);\r\n         require(success, \"Failled\" );\r\n    }\r\n    \r\n    function DepositWithTransfer(address payable _to) public payable{\r\n        _to.transfer(msg.value);\r\n    }\r\n    \r\n    function DepositWithCall(address payable _to) public payable{\r\n        (bool sent, ) = _to.call{value: msg.value}(\"\");\r\n        require(sent, \"Failled\" );\r\n    }\r\n    \r\n    function JustGiveMessage(address _to) public{\r\n        (bool success, ) = _to.call(\"HI\");\r\n        require(success, \"Failled\" );\r\n    }\r\n    \r\n    function JustGiveMessageWithFunds(address payable _to) public payable{\r\n        (bool success,) = _to.call{value:msg.value}(\"HI\");\r\n        require(success, \"Failled\" );\r\n    }\r\n    \r\n}\r\n",
  "sourcePath": "C:\\Users\\user\\Desktop\\nft\\HelloWorld\\contracts\\fallback.sol",
  "compiler": {
    "name": "solc",
    "version": "0.8.19+commit.7dd6d404.Emscripten.clang"
  },
  "schemaVersion": "3.4.13",
  "updatedAt": "2023-04-14T04:49:31.775Z",
  "networkType": "ethereum",
  "devdoc": {
    "kind": "dev",
    "methods": {},
    "version": 1
  },
  "userdoc": {
    "kind": "user",
    "methods": {},
    "version": 1
  }
}